S010000050726F736A656B742E73726563C2
S11300000C94BE000C94DD000C94DD000C94DD0017
S11300100C94DD000C9449010C94DD000C94DD007B
S11300200C94DD000C94DD000C94DD000C94DD00D8
S11300300C94DD000C94DD000C94DD000C94DD00C8
S11300400C94DD000C94DD000C94DD000C94DD00B8
S11300500C94DD000C94DD000C94DD000C94DD00A8
S11300600C94DD000C94DD000C94DD000C94DD0098
S11300700C94DD000C94DD000C94DD000C94DD0088
S11300800C94DD000C94DD000C94DD000C94DD0078
S11300900C94DD000C94DD000C94DD000C94DD0068
S11300A00C94DD000C94DD000C94DD000C94DD0058
S11300B00C94DD000C94DD000C94DD000C94DD0048
S11300C00C94DD000C94DD000C94DD000C94DD0038
S11300D00C94DD000C9411090C94DD000C94DD00EB
S11300E00C94DD000C94DD000C94DD000C94DD0018
S11300F00C94DD0056024A024C024E025002520297
S11301005402C502CA02D002D602DC02E202E802AC
S1130110EE021F03230327032B032F0333033703A9
S11301203B0308000000BE922449123EABAAAA2A4F
S1130130BECDCCCC4C3E00000080BEABAAAAAA3EE9
S113014000000000BF000000803F00000000000825
S11301504178D3BB4387D1133D190E3CC3BD4282C2
S1130160AD2B3E68EC8276BED98FE1A93E4C80EF80
S1130170FFBE01C4FF7F3F000000000011241FBE2A
S1130180CFEFCDBFDFE7DEBF18E4A0E0B0E4E0EEE0
S1130190FFE100E00BBF02C007900D92A63DB1073E
S11301A0D9F729E4A6EDB8E401C01D92A036B20740
S11301B0E1F70E94FA080C94EE0F0C94000085E01D
S11301C08093B000E0E0F6E081E08083128284E076
S11301D0808780E48187089581E080930A06809176
S11301E00A068111FCCF80911006909111060895A2
S11301F0CF92DF92EF92FF92CF93DF930E94EC00B5
S1130200EC016FEF7FE0681B790B80E090E00E94C7
S1130210FD0A6B017C01BE0180E090E00E94FD0AB2
S11302209B01AC01C701B6010E945C0A20E030E4E6
S11302304CE156E40E94DB0B20E030E44CE156E450
S11302400E945C0A0E94930B20E030EE46E755E4DE
S11302500E945C0A2FE03FEC4BE55BE30E94F0094F
S11302609B01AC0160E070E080E89FE30E945C0ABF
S113027023E333E948E853E40E94EF090E94CE0ADD
S1130280862F90E0DF91CF91FF90EF90DF90CF9099
S113029008951F920F920FB60F9211240BB60F926E
S11302A0EF92FF920F931F932F933F934F935F937C
S11302B06F937F938F939F93AF93BF93EF93FF932A
S11302C0CF93DF93CDB7DEB72597CDBFDEBF0E94B6
S11302D0F8008C0180E090E40E9456040E947404AB
S11302E00E9479040E9474048BE090E40E945604F6
S11302F01F930F9385E290E49F938F93CE01019611
S11303007C019F938F930E94110DC7010E94560494
S11303108FEE96E40E9456040F900F900F900F906A
S11303200F900F900F30110520F480E00E942704F5
S113033011C00432110520F084E60E9427040AC08B
S1130340C801880F991F880F991F800F911F8B5424
S11303500E94270481E0809343010E94740488E290
S113036090E40E9456040E9479048DE390E40E9474
S113037056040E947E042596CDBFDEBFDF91CF9147
S1130380FF91EF91BF91AF919F918F917F916F9169
S11303905F914F913F912F911F910F91FF90EF909B
S11303A00F900BBE0F900FBE0F901F9018959CE1FD
S11303B088ED84BF90936800089591E088ED84BF30
S11303C090937800E0E4F1E0178288E592E0828778
S11303D0938788E780830895E0E4F1E081E08283F5
S11303E08081816080830895E0E4F1E082818E7FE2
S11303F0828380818E7F8083089583E08093E605E5
S1130400E0E0FAE087E381838091200A9091210A59
S1130410809590959185892381878FEF90E086A3BD
S113042097A389E08083E0E6F4E0808183608083A1
S1130430089510924204E0E0FBE0148615861286CB
S1130440138680818160808381818361818384813B
S1130450816084830895E82FF0E0FC5E8081089534
S11304600E942B0224E3829FC00111240895EF927D
S1130470FF920F931F93CF93DF937B0190E0FC01D6
S11304803197E730F10520F4E658FF4F0C949F0CA8
S113049000E00DC004E10BC00EE109C008E207C092
S11304A002E305C00CE303C006E401C00AE010E067
S11304B00DC0C12FD0E0CC0FDD1FCE0DDF1D802F6E
S11304C0810F0E943002888399831F5F1A3088F35A
S11304D0DF91CF911F910F91FF90EF900895CF93EB
S11304E0DF93EB010E94370280E020E030E00BC094
S11304F0E82FF0E0EE0FFF1FEC0FFD1F408151814C
S1130500240F351F8F5F8A3098F3ADECBCEC0E944A
S1130510A80C969587959695879596958795DF91DE
S1130520CF9108959091021091FDFCCF9DE923E1B4
S113053094BF20930010E82FF0E0FC5E608380E01D
S113054094BF809300100895482F9B01A5ECBEE44E
S11305500E94A80C929582958F7089279F70892795
S1130560682F842F0E9492020895CF93DF93C82F9F
S1130570D62F0E9458034C2F50E04830510598F56F
S1130580FA01EF57FF4F0C949F0CBC018D2F0E9472
S1130590A40229C0BC018AE08D0F0E94A40223C0DA
S11305A0BC0184E18D0F0E94A4021DC0BC018EE138
S11305B08D0F0E94A40217C0BC0188E28D0F0E9417
S11305C0A40211C0BC0182E38D0F0E94A4020BC0DF
S11305D0BC018CE38D0F0E94A40205C0BC0186E41B
S11305E08D0F0E94A402DF91CF910895CF93DF93E2
S11305F080E50E942B02D82F84E60E942704C0E0E5
S113060005C06D2F8C2F0E94B502CF5FC830C8F390
S1130610D93029F460E080E50E94920204C06D2F75
S113062080E50E949202DF91CF91089590E0883096
S1130630910520F5FC01E757FF4F0C949F0C80E4D3
S1130640809312021BC081E48093120217C082E4DB
S11306508093120213C083E4809312020FC084E4D7
S1130660809312020BC085E48093120207C086E4D3
S11306708093120203C087E48093120283E0809384
S11306803E02E0E0FBE06485758580E090E014863E
S1130690158608959B01AC01220F331F441F551F7B
S11306A060E070E788E399E30E947D0CC901089536
S11306B00E9416030E944A030895AC012091280A5F
S11306C03091290A11C04093280A5093290AE0E680
S11306D0F4E09081916090838FE39CE90197F1F7B6
S11306E000C000002F5F3F4F2417350760F30895C3
S11306F0AC0120912A0A30912B0A11C040932A0A96
S113070050932B0AE0E6F4E09081926090838FE3AB
S11307109CE90197F1F700C000002F5F3F4F2417B9
S1130720350760F30895AC012091280A3091290A15
S113073011C04093280A5093290AE0E6F4E090811E
S1130740916090838FE39CE90197F1F700C000006A
S1130750215031094217530760F30895AC012091E9
S11307602A0A30912B0A11C040932A0A50932B0A6B
S1130770E0E6F4E09081926090838FE39CE9019736
S1130780F1F700C00000215031094217530760F30C
S113079008959FEF980F993008F48AE064E6681B87
S11307A08FEF689FB0011124072E000C880B990B62
S11307B00E94FF0A2AE037ED43E25CE30E94DB0B70
S11307C00E94CE0A4091280A5091290A46175707D9
S11307D020F4CB010E945D0308954091280A5091B2
S11307E0290A6417750718F4CB010E94930308952E
S11307F09FEF980F993008F48AE064E6681B8FEF46
S1130800689FB0011124072E000C880B990B0E94DD
S1130810FF0A2AE037ED43E25CE30E94DB0B0E940F
S1130820CE0A40912A0A50912B0A4617570720F402
S1130830CB010E947803089540912A0A50912B0A13
S11308406417750718F4CB010E94AE030895CF9383
S1130850C82F0E94C9038C2F0E94F803CF910895DA
S1130860E0E6F8E08BE09AE1808791871092E20558
S1130870A0E2B4E08C9181608C938C918D7F8C93F9
S113088080E8858380EC868383E0878312860895DD
S1130890809164088823E4F780916008089590911A
S11308A0640895FFFCCF8093620808950F931F930B
S11308B0CF93DF938C01C0E0D0E007C0F801EC0FC8
S11308C0FD1F80810E944F042196F80101900020B1
S11308D0E9F73197E01BF10BCE17DF0778F3DF91CF
S11308E0CF911F910F91089581E490E40E945604E2
S11308F0089584E490E40E94560408958BEA90E4F9
S11309000E94560408958BEB90E40E9456040E94C2
S113091074040E9479040E9474040E94740408956B
S11309200E9479040E94740408950E9474040E9431
S113093079040E9474040E9474040E9474048BEA73
S113094090E40E94560408950E94EC010E949004D1
S11309508AEC90E40E9456040E94950408950F9333
S11309601F93CF93DF93CDB7DEB72697CDBFDEBFFE
S1130970162F811122C0862F0E94C90380E291E4C0
S11309800E9456041F921F9385E290E49F938F93D5
S11309908E010F5F1F4F1F930F930E94110DC8010B
S11309A00E9456048FEE96E40E9456040F900F9016
S11309B00F900F900F900F9028C0813011F5862F63
S11309C00E94F8038BE391E40E9456041F921F9344
S11309D085E290E49F938F938E010F5F1F4F1F93C7
S11309E00F930E94110DC8010E9456048FEE96E4E5
S11309F00E9456040F900F900F900F900F900F903D
S1130A0004C086E591E40E9456042696CDBFDEBF5D
S1130A10DF91CF911F910F910895CF93DF93C82F4A
S1130A20D62F0E94F4010E9490046D2F8C2F0E94F7
S1130A30AF040E949504DF91CF910895CF93DF9383
S1130A40D82F0E94F4010E949004C0E009C06D2FC9
S1130A508C2F0E94AF04C11102C00E947404CF5FA6
S1130A60C230A8F30E949504DF91CF910895CF92EC
S1130A70DF92EF92FF920F931F93CF93DF93CDB743
S1130A80DEB72597CDBFDEBF182F0E945803D82E9E
S1130A90C92E8CE691E40E9456041F921F9305E22E
S1130AA010E41F930F93CE0101967C019F938F93C3
S1130AB00E94110DC7010E94560488E791E40E9428
S1130AC05604CF92DF921F930F938E010E5F1F4F38
S1130AD01F930F930E94110DC8010E9456048FEEBC
S1130AE096E40E945604CDBFDEBF2596CDBFDEBF7F
S1130AF0DF91CF911F910F91FF90EF90DF90CF90F6
S1130B000895CF93C82F0E9490048C2F0E9437051C
S1130B100E949504CF910895CF930E949004C0E061
S1130B2008C08C2F0E943705C73010F40E9474044B
S1130B30CF5FC830B0F30E949504CF910895EF922F
S1130B40FF921F93CF93DF93CDB7DEB76A97CDBFE4
S1130B50DEBF182FBE016F5F7F4F0E9437028CE605
S1130B6091E40E9456041F921F9385E290E49F93A0
S1130B708F937E0185E1E80EF11CFF92EF920E94B3
S1130B80110DC7010E94560481E991E40E945604A4
S1130B900F900F900F900F900F900F9010E02AC0BD
S1130BA0E12FF0E0EE0FFF1F81E090E08C0F9D1F1E
S1130BB0E80FF91F81818F9380818F9385E290E400
S1130BC09F938F937E0196E1E90EF11CFF92EF92C1
S1130BD00E94110DC7010E9456040F900F900F90B0
S1130BE00F900F900F90193020F481EB91E40E9444
S1130BF056041F5F1A30A0F284EB91E40E9456045D
S1130C006A96CDBFDEBFDF91CF911F91FF90EF9029
S1130C100895CF93C82F0E9490048C2F0E949F05A3
S1130C200E949504CF910895CF930E949004C0E050
S1130C3008C08C2F0E949F05C73010F40E947404D2
S1130C40CF5FC830B0F30E949504CF910895CF923E
S1130C50DF92EF92FF920F931F93CF93DF93CDB761
S1130C60DEB76A97CDBFDEBF182FBE016F5F7F4F1F
S1130C700E946F02D82EC92E8CE691E40E9456047D
S1130C801F921F9305E210E41F930F937E0185E1E9
S1130C90E80EF11CFF92EF920E94110DC7010E9411
S1130CA0560487EB91E40E945604CF92DF921F937F
S1130CB00F938E010A5E1F4F1F930F930E94110D15
S1130CC0C8010E9456048FEC91E40E945604CDBFE3
S1130CD0DEBF6A96CDBFDEBFDF91CF911F910F912A
S1130CE0FF90EF90DF90CF900895CF93C82F0E948C
S1130CF090048C2F0E9427060E949504CF9108959A
S1130D00CF930E949004C0E008C08C2F0E94270655
S1130D10C73010F40E947404CF5FC830B0F30E944F
S1130D209504CF9108950E9490048FEE91E40E945F
S1130D3056040E94F6028FE192E40E9456040E9437
S1130D4095040895CF930E94900488E392E40E944E
S1130D505604C0E005C060E08C2F0E949202CF5F71
S1130D60C135C8F38BE592E40E9456040E949504B1
S1130D70CF9108950E9490048CE692E40E94560458
S1130D8060E080E50E9492028BE592E40E945604A2
S1130D900E94950408950E94900489E992E40E94B7
S1130DA0560486EC92E40E9456048FEE92E40E946C
S1130DB0560489E093E40E94560486E393E40E9477
S1130DC0560488E493E40E94560489E693E40E945E
S1130DD0560481E793E40E9456040E949504089502
S1130DE00E94900482E893E40E94560487EC93E402
S1130DF00E94560487E094E40E9456048EE594E42D
S1130E000E9456040E94950408950E94900489E863
S1130E1094E40E9456048CEC94E40E9456048DEFF2
S1130E2094E40E9456040E94950408950E9490043C
S1130E308DE395E40E94560481E995E40E945604EA
S1130E4085ED95E40E94560487E196E40E945604D9
S1130E500E94950408950E94900488E696E40E94F6
S1130E6056048AEC96E40E9456040E949504089560
S1130E700E94900481EF96E40E9456048BE397E469
S1130E800E94560483E797E40E9456040E94950446
S1130E9008950E9490040E94830481E00895CF93F2
S1130EA0DF93EC010E94900481EC98E40E945604C4
S1130EB0CE010E94560481EC98E40E94560487ED0A
S1130EC097E40E9456040E949504DF91CF910895FF
S1130ED00F931F93CF93DF938C01EB010E94900437
S1130EE081EC98E40E945604C8010E9456048FE1E4
S1130EF098E40E945604CE010E9456048EEE96E4B5
S1130F000E9456040E949504DF91CF911F910F9186
S1130F100895EF92FF920F931F93CF93DF93EC0109
S1130F208B0163E378E40E94D90C892B19F40E94A5
S1130F30A40434C06DE378E4CE010E94D90C892B5B
S1130F4031F4C8010E94B70C0E941E0527C061E459
S1130F5078E4CE010E94D90C7C0163E478E4CE01EC
S1130F600E94D90CAC0121E0EF2809F020E091E0C7
S1130F70452B09F090E0922B61F0CE010E94B70C52
S1130F80C82FC8010E94B70C682F8C2F0E940D0532
S1130F9005C0BE0185E498E40E946807DF91CF9103
S1130FA01F910F91FF90EF9008951F93CF93DF93BC
S1130FB0EC010E94B70C182F6DE378E4CE010E9477
S1130FC0D90C892B19F40E948C051AC061E478E4C9
S1130FD0CE010E94D90C3FEF310F21E0892B09F09B
S1130FE020E081E0373008F080E0822B21F0812F6F
S1130FF00E94810505C0BE0181E598E40E9468074E
S1131000DF91CF911F910895CF93DF93EC016DE3AE
S113101078E40E94D90C892B19F40E94A2060FC00F
S11310206AE578E4CE010E94D90C892B19F40E9458
S1131030BA0605C0BE0184E698E40E946807DF9101
S1131040CF910895CF93DF93EC0160E070E00E94AC
S1131050D90C892B19F40E94CB0637C065E478E4D7
S1131060CE010E94D90C892B19F40E94F0062DC0E0
S113107061E578E4CE010E94D90C892B19F40E9411
S1131080050723C061E778E4CE010E94D90C892BBF
S113109019F40E94160719C06DE778E4CE010E9486
S11310A0D90C892B19F40E942B070FC064E678E44D
S11310B0CE010E94D90C892B19F40E94380705C06F
S11310C0BE018BE898E40E946807DF91CF910895F0
S11310D0EF92FF920F931F93CF93DF937C018B01C9
S11310E0EA010E94900481EC98E40E945604C7012E
S11310F00E94560480E998E40E945604C8010E94A4
S1131100560488EA98E40E945604CE010E945604CC
S11311108EEE96E40E9456040E949504DF91CF91CE
S11311201F910F91FF90EF900895FF920F931F93DB
S1131130CF93DF93EC018B010E94B70CF82E6DE383
S113114078E4CE010E94D90C892BD9F463EC78E4BD
S1131150C8010E94D90C892B19F40E94140644C0BA
S113116069EC78E4C8010E94D90C892B19F40E9417
S113117080063AC0A801BE0181E798E40E9468088D
S113118033C061E478E4CE010E94D90C3FEF3F0DF7
S113119021E0892B09F020E081E0373008F080E07D
S11311A0822BE9F063EC78E4C8010E94D90C892B06
S11311B021F48F2D0E94090617C069EC78E4C80158
S11311C00E94D90C892B21F48F2D0E9475060CC026
S11311D0A801BE0181E798E40E94680805C0BE0129
S11311E081E798E40E946807DF91CF911F910F91E6
S11311F0FF9008950E94D7010E94FD010E941902E8
S11312000E94DD010E94DF000E9430040E949306C8
S113121078948091D8488823E1F3F89480E090E0B2
S113122008951F920F920FB60F9211240BB60F92CE
S11312302F933F934F935F936F937F938F939F93DA
S1131240AF93BF93CF93DF93EF93FF930E94480430
S1131250C82F0E944F04CD3009F098C0E091D948BE
S1131260F0E0E052F74B10821092D94862EB71E43F
S113127080EE98E40E94D50C8093DE489093DF487A
S113128062EB71E480E090E00E94D50C8093DA4830
S11312909093DB4862EB71E480E090E00E94D50C0F
S11312A08093DC489093DD480E947404C091DE482A
S11312B0D091DF4865E478E4CE010E94D90C892BF3
S11312C059F46091DC487091DD488091DA4890913E
S11312D0DB480E9489076EC061E578E4CE010E9474
S11312E0D90C892B59F46091DC487091DD488091C8
S11312F0DA489091DB480E94D5075CC061E778E446
S1131300CE010E94D90C892B59F46091DC4870916C
S1131310DD488091DA489091DB480E9495084AC0E4
S11313206DE778E4CE010E94D90C892B19F40E9450
S1131330930640C064E678E4CE010E94D90C892B60
S113134039F48091DA489091DB480E94040832C055
S11313506BE878E4CE010E94D90C892B39F4809192
S1131360DA489091DB480E94220824C061ED78E4B9
S1131370CE010E94D90C892B29F40E94490780933D
S1131380D84818C0CE010E944F0714C0CF3741F48B
S11313908091D948882371F081508093D9480AC03C
S11313A0E091D94881E08E0F8093D948F0E0E05273
S11313B0F74BC083FF91EF91DF91CF91BF91AF9134
S11313C09F918F917F916F915F914F913F912F9159
S11313D00F900BBE0F900FBE0F901F901895505892
S11313E0BB27AA270E94070A0C94510B0E94430BA7
S11313F038F00E944A0B20F039F49F3F19F426F488
S11314000C94400B0EF4E095E7FB0C943A0BE92F97
S11314100E94620B58F3BA17620773078407950793
S113142020F079F4A6F50C94840B0EF4E0950B2EC1
S1131430BA2FA02D0B01B90190010C01CA01A00122
S11314401124FF27591B99F0593F50F4503E68F17D
S11314501A16F040A22F232F342F4427585FF3CFBE
S1131460469537952795A795F0405395C9F77EF48F
S11314701F16BA0B620B730B840BBAF09150A1F0D8
S1131480FF0FBB1F661F771F881FC2F70EC0BA0F5E
S1131490621F731F841F48F4879577956795B795E6
S11314A0F7959E3F08F0B0CF9395880F08F09927E1
S11314B0EE0F9795879508950E94700A0C94510B2E
S11314C00E944A0B58F00E94430B40F029F45F3FFE
S11314D029F00C943A0B51110C94850B0C94400B8D
S11314E00E94620B68F39923B1F3552391F3951B82
S11314F0550BBB27AA2762177307840738F09F5F31
S11315005F4F220F331F441FAA1FA9F335D00E2E9D
S11315103AF0E0E832D091505040E695001CCAF70A
S11315202BD0FE2F29D0660F771F881FBB1F2617CD
S113153037074807AB07B0E809F0BB0B802DBF01A4
S1131540FF2793585F4F3AF09E3F510578F00C9473
S11315503A0B0C94850B5F3FE4F3983ED4F38695E5
S113156077956795B795F7959F5FC9F7880F911D94
S11315709695879597F90895E1E0660F771F881F80
S1131580BB1F621773078407BA0720F0621B730B33
S1131590840BBA0BEE1F88F7E09508950E946A0B3E
S11315A088F09F5798F0B92F9927B751B0F0E1F020
S11315B0660F771F881F991F1AF0BA95C9F714C0D0
S11315C0B13091F00E94840BB1E008950C94840B27
S11315D0672F782F8827B85F39F0B93FCCF3869509
S11315E077956795B395D9F73EF490958095709566
S11315F061957F4F8F4F9F4F0895E89409C097FBE3
S11316003EF490958095709561957F4F8F4F9F4FD5
S11316109923A9F0F92F96E9BB279395F695879519
S113162077956795B795F111F8CFFAF4BB0F11F4DC
S113163060FF1BC06F5F7F4F8F4F9F4F16C0882383
S113164011F096E911C0772321F09EE8872F762FB9
S113165005C0662371F096E8862F70E060E02AF0FA
S11316609A95660F771F881FDAF7880F96958795E6
S113167097F9089597F99F6780E870E060E008950E
S11316809FEF80EC089500240A9416161706180696
S11316900906089500240A94121613061406050672
S11316A00895092E0394000C11F4882352F0BB0F03
S11316B040F4BF2B11F460FF04C06F5F7F4F8F4F66
S11316C09F4F089557FD9058440F551F59F05F3FA1
S11316D071F04795880F97FB991F61F09F3F79F050
S11316E087950895121613061406551FF2CF4695D2
S11316F0F1DF08C0161617061806991FF1CF869554
S11317007105610508940895E894BB276627772737
S1131710CB0197F9089516F00C94480C0C94400BE7
S113172068940C943A0B0E946A0BA8F39923C1F3B2
S1131730AEF3DF93CF931F930F93FF92C92FDD274F
S113174088232AF02197660F771F881FDAF720E095
S113175030E040E85FEB9FE3883920F0803E38F0CA
S113176021968F770E94F009E2E2F1E004C00E9422
S1131770F009EFE4F1E00E94560C8B01BE01EC018C
S1131780FB2E6F5771097595771F880B990B0E9473
S1131790FF0A28E132E741E35FE30E94EE0BAF2D3D
S11317A09801AE01FF900F911F91CF91DF910E949C
S11317B0070A0C94510B0E94EE0B0C94510B0E94DF
S11317C0430B38F00E944A0B20F0952311F00C943F
S11317D03A0B0C94400B11240C94850B0E94620B61
S11317E070F3959FC1F3950F50E0551F629FF00170
S11317F0729FBB27F00DB11D639FAA27F00DB11D89
S1131800AA1F649F6627B00DA11D661F829F222711
S1131810B00DA11D621F739FB00DA11D621F839F98
S1131820A00D611D221F749F3327A00D611D231F6E
S1131830849F600D211D822F762F6A2F11249F57BC
S113184050409AF0F1F088234AF0EE0FFF1FBB1FBF
S1131850661F771F881F91505040A9F79E3F51057E
S113186080F00C943A0B0C94850B5F3FE4F3983EA4
S1131870D4F3869577956795B795F795E7959F5F28
S1131880C1F7FE2B880F911D9695879597F90895BA
S11318909F3F31F0915020F4879577956795B795E0
S11318A0880F911D9695879597F90895DF93CF93A7
S11318B01F930F93FF92EF92DF927B018C01689448
S11318C006C0DA2EEF010E94EE0BFE01E894A5910A
S11318D02591359145915591A6F3EF010E94070A90
S11318E0FE019701A801DA9469F7DF90EF90FF9069
S11318F00F911F91CF91DF910895A1E21A2EAA1B97
S1131900BB1BFD010DC0AA1FBB1FEE1FFF1FA217AB
S1131910B307E407F50720F0A21BB30BE40BF50BA8
S1131920661F771F881F991F1A9469F76095709531
S1131930809590959B01AC01BD01CF010895EE0FF8
S1131940FF1F0024001C0BBE0790F691E02D0994A4
S1131950A29FB001B39FC001A39F700D811D1124EC
S1131960911DB29F700D811D1124911D0895FC01DC
S113197088279927E89421912032E9F3293010F03F
S11319802E30C8F32B3241F02D3239F4689404C060
S11319900E94090D820F911D219120532A30C0F31A
S11319A01EF4909581959F4F089546ED58E40C944C
S11319B0E20CFB01DC018D91019080190110D9F337
S11319C0990B0895FA01A191B081009719F4109729
S11319D0E1F0CD01DC01CD010D90002011F4C00136
S11319E013C0FB012191222319F02015D9F7F3CF5D
S11319F0FB012191201519F41E92119606C0222391
S1131A00C1F70D900020A1F7D001FA01A193B08392
S1131A1008957AE0979F902D879F802D910D112432
S1131A2008950F931F93CF93DF93CDB7DEB72E970F
S1131A30CDBFDEBF0D891E8986E08C8309831A839E
S1131A408FEF9FE78D839E83AE01475E5F4F6F8963
S1131A50788DCE0101960E943A0DEF81F885E00F52
S1131A60F11F10822E96CDBFDEBFDF91CF911F9163
S1131A700F9108952F923F924F925F926F927F92AF
S1131A808F929F92AF92BF92CF92DF92EF92FF928A
S1131A900F931F93CF93DF93CDB7DEB72B97CDBFB3
S1131AA0DEBF6C017B018A01FC01168217828381EF
S1131AB081FFCCC1CE0101963C01F6019381F7016F
S1131AC093FD859193FF81917F01882309F4BAC125
S1131AD0853239F493FD859193FF81917F0185329D
S1131AE029F4B60190E00E94540FE7CF912C212CE9
S1131AF0312CFFE1F315D8F08B3279F038F48032D1
S1131B0079F08332A1F4232D20611DC08D3261F060
S1131B10803369F4232D216016C0832D8260382E12
S1131B20E32DE4603E2E2AC0F32DF8601DC037FC7F
S1131B302DC020ED280F2A3040F08E32B9F436FC47
S1131B4081C1232D2064322E19C036FE06C08AE0DE
S1131B50989E200D1124922E11C0EAE02E9E200D95
S1131B601124222EF32DF0623F2E08C08C3621F46E
S1131B70832D8068382E02C0883641F4F70193FD26
S1131B80859193FF81917F018111B3CF982F9F7D20
S1131B909554933028F40C5F1F4F9FE399830DC035
S1131BA0833631F0833771F0833509F059C021C091
S1131BB0F801808189830E5F1F4F88248394912CC0
S1131BC0530113C02801F2E04F0E511CF801A0800C
S1131BD0B18036FE03C0692D70E002C06FEF7FEF65
S1131BE0C5010E94490F4C018201F32DFF773F2E5E
S1131BF016C0280122E0420E511CF801A080B180D9
S1131C0036FE03C0692D70E002C06FEF7FEFC5019F
S1131C100E943E0F4C01F32DF0683F2E820133FCED
S1131C201BC0822D90E088169906B0F4B60180E2BC
S1131C3090E00E94540F2A94F4CFF50137FC85916B
S1131C4037FE81915F01B60190E00E94540F21108C
S1131C502A9421E0821A91088114910471F7E8C052
S1131C60843611F0893641F5F80137FE07C06081EA
S1131C707181828193810C5F1F4F08C060817181E3
S1131C80072E000C880B990B0E5F1F4FF32DFF7668
S1131C903F2E97FF09C090958095709561957F4F71
S1131CA08F4F9F4FF0683F2E2AE030E0A3010E943F
S1131CB0900F882E861845C0853731F4232D2F7E4A
S1131CC0B22E2AE030E025C0932D997FB92E8F36AD
S1131CD0C1F018F4883579F0B5C0803719F0883729
S1131CE021F0B0C0E92FE061BE2EB4FE0DC0FB2D83
S1131CF0F460BF2E09C034FE0AC0292F2660B22E1C
S1131D0006C028E030E005C020E130E002C020E158
S1131D1032E0F801B7FE07C060817181828193814E
S1131D200C5F1F4F06C06081718180E090E00E5F00
S1131D301F4FA3010E94900F882E8618FB2DFF775A
S1131D403F2E36FE0DC0232D2E7FA22E891458F46B
S1131D5034FE0BC032FC09C0832D8E7EA82E05C034
S1131D60B82CA32C03C0B82C01C0B92CA4FE0FC0FE
S1131D70FE01E80DF11D8081803321F49A2D997EB6
S1131D80A92E09C0A2FE06C0B394B39404C08A2D40
S1131D90867809F0B394A3FC11C0A0FE06C0B21467
S1131DA088F4280C922C9B180EC0B21460F4B6016F
S1131DB080E290E00E94540FB394F7CFB21418F469
S1131DC02B1802C0982C212CA4FE10C0B60180E36D
S1131DD090E00E94540FA2FE17C0A1FC03C088E744
S1131DE090E002C088E590E0B6010CC08A2D8678A8
S1131DF059F0A1FE02C08BE201C080E2A7FC8DE293
S1131E00B60190E00E94540F891438F4B60180E3BF
S1131E1090E00E94540F9A94F7CF8A94F301E80D4E
S1131E20F11D8081B60190E00E94540F8110F5CF1E
S1131E30222009F442CEB60180E290E00E94540FC1
S1131E402A94F6CFF6018681978102C08FEF9FEF27
S1131E502B96CDBFDEBFDF91CF911F910F91FF90E5
S1131E60EF90DF90CF90BF90AF909F908F907F9036
S1131E706F905F904F903F902F900895FC010590D4
S1131E80615070400110D8F7809590958E0F9F1F78
S1131E900895FC016150704001900110D8F78095BD
S1131EA090958E0F9F1F08950F931F93CF93DF93E9
S1131EB0FB01238121FD03C08FEF9FEF2CC022FF84
S1131EC016C046815781248135814217530744F453
S1131ED0A081B1819D012F5F3F4F208331838C937B
S1131EE0268137812F5F3F4F2683378314C08B01B0
S1131EF0EC01FB010084F185E02D0995892BE1F6C5
S1131F00D80116968D919C911797019616968D93EC
S1131F109C931797CE01DF91CF911F910F91089554
S1131F20FA01AA27283051F1203181F1E8946F9306
S1131F306E7F6E5F7F4F8F4F9F4FAF4FB1E03ED0AC
S1131F40B4E03CD0670F781F891F9A1FA11D680F4A
S1131F50791F8A1F911DA11D6A0F711D811D911D7D
S1131F60A11D20D009F468943F912AE0269F1124F2
S1131F703019305D3193DEF6CF010895462F477056
S1131F80405D4193B3E00FD0C9F7F6CF462F4F70B1
S1131F90405D4A3318F0495D31FD4052419302D00F
S1131FA0A9F7EACFB4E0A6959795879577956795B5
S1131FB0BA95C9F700976105710508959B01AC01B5
S1131FC00A2E06945795479537952795BA95C9F7DC
S1131FD0620F731F841F951FA01D0895F894FFCFEF
S1131FE04E4F20434F4D4D414E440054454D5045B6
S1131FF0524154555245204D454153555245442074
S1132000544F3A200025640046414E205350454524
S11320104420555044415445442E0D0A000D0A0DE8
S11320200A0D0A002D2D2D2D2D2D2D2D2D2D2D2D6F
S11320302D2D2D2D2D2D2D2D2D2D2D2D2D2D2D2DCC
S11320402D2D2D2D2D2D2D2D2D2D2D2D2D2D2D2DBC
S11320502D2D2D2D2D2D2D2D2D2D2D2D2D2D2D2DAC
S11320602D2D2D2D2D2D2D2D2D2D2D2D2D2D2D2D9C
S11320702D2D2D2D2D2D2D2D2D2D2D2D2D2D2D2D8C
S11320802D2D2D2D2D2D2D2D2D2D0057726974657F
S113209020636F6D6D616E643A200053656520792D
S11320A06F75206C61746572210046616E20636FE8
S11320B06E74726F6C2069732073657420746F2062
S11320C06175746F6D617469632E20546865206650
S11320D0616E2073706565642077696C6C206E6F27
S11320E0772062652064657465726D696E6564202D
S11320F062792074656D70657261747572652E0005
S113210046616E206E756D62657220302D332069D4
S1132110732073657420746F3A200046616E206EDC
S1132120756D62657220342D372069732073657470
S113213020746F3A2000536F6D657468696E672070
S113214077656E742077726F6E672E0046616E201D
S11321506E756D6265722000206861732061206D68
S1132160656173757265642052504D206F663A2024
S1132170002773206C6173742074656E206D656133
S1132180737572656D656E7473206172653A205B58
S1132190002C20005D2E0020686173206120617690
S11321A065726167652052504D206F663A200020A9
S11321B06F76657220746865206C617374203130A9
S11321C0206D6561737572656D656E74732E005252
S11321D0504D2076616C7565732066726F6D206555
S11321E06163682066616E206973206265696E6749
S11321F0206D656173757265642E2E2E0D0A00457F
S11322004550524F4D2055504441544520434F4D65
S1132210504C455445442E00416C6C204545505269
S11322204F4D2077696C6C2062652072657365740C
S113223020746F20302E2E2E0D0A00524553455423
S113224020434F4D504C455445442E00546865205E
S1132250697465726174696F6E206E756D62657202
S11322602077696C6C2062652072657365742074D4
S11322706F20302E2E2E0D0A005468657265206181
S11322807265203720646966666572656E742063C2
S11322906F6D6D616E6473207265676973746572C6
S11322A065643A0D0A002A46616E5F436F6E74726C
S11322B06F6C203C66616E5F6E756D6265723E2068
S11322C03C66616E5F73706565643E2E0D0A002A7C
S11322D0526561645F46616E203C66616E5F6E7537
S11322E06D6265723E2E0D0A002A526561645F4577
S11322F04550524F4D203C66616E5F6E756D626550
S1132300723E203C41727261792F41766572616739
S1132310653E2E0D0A002A5570646174655F45455B
S113232050524F4D2E0D0A002A52657365745F4555
S11323304550524F4D203C416C6C2F49746572617D
S113234074696F6E3E2E0D0A002A456E642E0D0AC6
S1132350002A48656C70203C636F6D6D616E643E4D
S11323602E0046616E5F436F6E74726F6C206973EA
S1132370206120636F6D6D616E64207468617420E8
S11323806C65747320746865207573657220636F5F
S11323906E74726F6C207468652066616E20737051
S11323A06565642E0D0A0054686520636F6D6D6168
S11323B06E642073796E7461782069732027466196
S11323C06E5F436F6E74726F6C203C66616E5F6EFD
S11323D0756D6265723E203C66616E5F7370656503
S11323E0643E272E0D0A003C66616E5F6E756D6259
S11323F065723E2069732065697468657220612086
S11324006E756D6265722066726F6D203020746F18
S113241020312C2074686520776F72642027416C0A
S11324206C27206F722074686520776F7264202790
S11324304175746F6D61746963272E0D0A003C66E3
S1132440616E5F73706565643E20697320612070FE
S1132450657263656E746167652066726F6D2030A6
S113246020746F203130302E00526561645F466104
S11324706E206973206120636F6D6D616E642074DA
S1132480686174206C657473207468652075736565
S11324907220726561642074686520737065656478
S11324A0206F662066616E732E0D0A0054686520E5
S11324B0636F6D6D616E642073796E7461782069E9
S11324C0732027526561645F46616E203C66616ECD
S11324D05F6E756D6265723E272E0D0A003C666163
S11324E06E5F6E756D6265723E20697320656974F6
S11324F06865722061206E756D6265722066726F08
S11325006D203020746F20372C206F722074686522
S113251020776F72642027416C6C272E005265610E
S1132520645F454550524F4D206973206120636FAD
S11325306D6D616E642074686174206C65747320C1
S113254074686520757365722073656520746865A9
S11325502064617461207361766564206F6E206607
S1132560616E7320696E20454550524F4D2E0D0A01
S11325700054686520636F6D6D616E642073796EBD
S11325807461782069732027526561645F45455002
S1132590524F4D203C66616E5F6E756D6265723E92
S11325A0203C41727261792F417665726167653EA4
S11325B0272E0D0A003C66616E5F6E756D62657252
S11325C03E206973206569746865722061206E75A8
S11325D06D6265722066726F6D203020746F2037D3
S11325E02C206F722074686520776F7264202741F5
S11325F06C6C272E0D0A003C41727261792F417672
S113260065726167653E2064657465726D696E65A7
S11326107320776865746865722074686520636FD9
S11326206D6D616E642072657475726E732074686A
S113263065206172726179206F722074686520610F
S11326407665726167652E005570646174655F45D7
S11326504550524F4D206973206120636F6D6D6149
S11326606E642074686174206C657473207468658A
S11326702075736572207570646174652074686573
S11326802064617461207361766564206F6E2066D6
S1132690616E7320696E20454550524F4D206D6127
S11326A06E75616C6C792E0D0A0054686520636F39
S11326B06D6D616E642073796E7461782069732026
S11326C0275570646174655F454550524F4D272E00
S11326D00052657365745F454550524F4D206973D0
S11326E0206120636F6D6D616E6420746861742075
S11326F06C657473207468652072657365742074E6
S11327006865206461746120736176656420696E14
S113271020454550524F4D2E0D0A005468652063E4
S11327206F6D6D616E642073796E74617820697366
S1132730202752657365745F454550524F4D203CC8
S1132740416C6C2F497465726174696F6E3E272EFB
S11327500D0A003C416C6C2F497465726174696F99
S11327606E3E2064657465726D696E65732077686A
S113277065746865722074686520636F6D6D616E41
S1132780642072657365747320616C6C20454550D8
S1132790524F4D2075736564206F72206A7573748F
S11327A02074686520697465726174696F6E206E47
S11327B0756D6265722E00206973206E6F742061DE
S11327C0207265676973746572656420636F6D6DEB
S11327D0616E642E2054727920616761696E2E20C7
S11327E0496620796F75206E6565642068656C7034
S11327F0207772697465202748656C70272E00273E
S113280020686173206E6F20616772756D656E74E8
S11328102027004175746F6D6174696300416C6CAD
S1132820003000310046616E5F436F6E74726F6CEE
S113283000526561645F46616E004974657261743B
S1132840696F6E0052657365745F454550524F4D14
S113285000526561645F454550524F4D00557064A8
S11328606174655F454550524F4D0048656C70007A
S113287027207769746820666972737420617267AF
S1132880756D656E742027002720686173206E6F54
S1132890207365636F6E6420617267756D656E7415
S11328A02027004172726179004176657261676523
S10928B000456E64000007
S9030000FC
